:020000040800F2
:10000000D8B800209D010008CF1500086D14000825
:10001000CD150008130A00083D2800080000000064
:10002000000000000000000000000000991C000813
:10003000150A000800000000691600087D1F00086E
:10004000B7010008B7010008B7010008B7010008B0
:10005000B7010008B7010008B7010008B7010008A0
:10006000B7010008B7010008B7010008B701000890
:10007000B7010008B7010008B7010008B701000880
:10008000B7010008B7010008B7010008B701000870
:10009000B7010008B7010008B7010008B701000860
:1000A000B7010008B7010008B7010008B701000850
:1000B000B701000821200008B7010008B7010008B7
:1000C000B7010008B7010008B7010008B701000830
:1000D000B7010008B7010008B7010008B701000820
:1000E000B7010008B7010008B7010008B701000810
:1000F000B5230008B70100087D200008B7010008FB
:10010000B7010008B7010008B7010008B7010008EF
:1001100089260008B7010008B7010008B7010008E8
:10012000B7010008B7010008B7010008B7010008CF
:10013000B7010008B7010008B7010008B7010008BF
:10014000B7010008B7010008B7010008B7010008AF
:10015000B7010008B7010008B7010008B70100089F
:10016000B7010008B7010008B7010008B70100088F
:10017000B7010008B7010008B7010008B70100087F
:10018000B7010008B7010008DFF80CD000F004FC4C
:100190000048004775920008D8B8002006488047FC
:1001A00006480047FEE7FEE7FEE7FEE7FEE7FEE75C
:1001B000FEE7FEE7FEE7FEE7C51F0008890100082D
:1001C0002DE9F0410024061B254671F1000605DAF1
:1001D00001240027D0EB070067EB0101161E73F125
:1001E000000605DA0027D2EB0702012567EB0303BF
:1001F00000F072FA86460E4617469C46AC4204D082
:100200000025D0EB050E65EB010624B10020D2EBF2
:10021000000760EB030C704631463A466346BDE882
:10022000F08140EA01039B0703D009E008C9121FCF
:1002300008C0042AFAD203E011F8013B00F8013BA0
:10024000521EF9D27047D2B201E000F8012B491ECC
:10025000FBD270470022F6E710B513460A46044663
:100260001946FFF7F0FF204610BD034611F8012B99
:1002700000F8012B002AF9D1184670472DE9FE4FEE
:10028000804681EA0300C00F0C46009021F0004137
:1002900023F00045B8EB0200A94105D240462146B3
:1002A00090461C460B46024623F00040104347D0C0
:1002B000270DC7F30A00C3F30A510290401A0190B8
:1002C00040286BDAC3F3130040F4801B0098924679
:1002D00020B10023D2EB030A63EB0B0B01985946C4
:1002E000C0F14002504600F028FA06460D4650463E
:1002F0005946019A00F040FA10EB080061410024D1
:1003000087EA115284EAE7731A4340D0009A62B335
:10031000019A012A4FEA075215DC001B61EB02012A
:100320004FF0004202EA0752CDE90042001C41F5BD
:10033000801132462B4600F077FA03B0BDE8F08F0B
:1003400040462146F9E7001B61EB0201001C41F524
:10035000801300185B412018A2F5001747EB03013A
:1003600040EAD570B6196D4111E06D084FEA3606C6
:1003700045EAC0754FEA0752001B61EB0201001C01
:1003800041F5801149084FEA3000001951413246C9
:100390002B4603B0BDE8F04F00F037BA00980122B9
:1003A00040000023D0EB020263EBE073009821468B
:1003B0004FEAE074B8EB000061EB0401E9E783F079
:1003C00000435BE781F0004158E72DE9FE4F81EAE9
:1003D000030404F0004421F0004100944FF0000BAE
:1003E00023F0004350EA01045ED052EA03045BD0DC
:1003F000C3F30A54C1F30A552C44A4F2F334019414
:10040000A0FB0254C1F3130141F48011C3F31303A1
:1004100043F4801301FB024400FB034E840A970A55
:1004200044EA815447EA8357A4FB076802958D0A82
:1004300005FB07854FEA932C04FB0C542705029D0E
:100440004FEA065847EA1637B5EB08056EEB070C7E
:10045000870E920E47EA811742EA8312A7FB020138
:10046000B6EB0B0164EB00042B0D43EA0C335E1872
:1004700044EB1C50DA465146E7FB0201C5F3130476
:100480004FEA0B3343EA14534FEA0432019C43EA28
:100490000603A4F10C040294009CCDE900B400F022
:1004A000C3F903B0BDE8F08F00200146F9E72DE95C
:1004B000F04D81EA030404F0004B21F0004514469E
:1004C0004FF0000A23F0004150EA050220D054EA20
:1004D00001021DD0C5F30A570246C5F31303C1F349
:1004E0001300C1F30A5640F4801543F48013A7EBC0
:1004F0000608101BD64608F2FD3873EB050002D340
:1005000008F1010801E092185B41B8F1000F03DA2D
:1005100000200146BDE8F08D00204FF48011064612
:1005200084460EE0171B73EB050705D3121B63EB24
:10053000050306434CEA010C49084FEA30009218C3
:100540005B4150EA0107EDD152EA030012D082EA82
:10055000040083EA0501084305D0101BAB4106D215
:100560000122002306E000224FF0004302E06FF07A
:10057000010253101AEB06004CEB085110EB0A0075
:1005800041EB0B01BDE8F04D00F03FB90EB5C10FD6
:1005900080EAE0700844CA07002140F233438DE846
:1005A0000E000A460B4600F03FF903B000BD70B5DF
:1005B000C1F30A5201F000450024C1F3130140F2D7
:1005C000FF3341F480119A4201DA002070BD40F2FD
:1005D00033439A42A2F2334203DC524200F0BCF8A9
:1005E00000E090402C43F1D0404270BD00F000424A
:1005F00030F000400AD0C10D01F56071C0F3160063
:1006000042EA0151C20840071143704700200146E9
:100610007047000030B5041E71F1000404DB4FF098
:100620000044404264EB0101141E73F1000405DB39
:100630001C464FF00043524263EB04038B4208BF59
:10064000824230BD30B5041E71F1000404DB4FF06E
:100650000044404264EB0101141E73F1000405DB09
:100660001C464FF00043524263EB0403994208BF1B
:10067000904230BD01F0004330B421F0004150EA17
:10068000010206D00A0DA2F56072C1F31301002A1F
:1006900002DC30BC00207047440F44EAC104C100B2
:1006A000E01830BC00EBC25000F078B830B50B4613
:1006B000014600202022012409E021FA02F59D4292
:1006C00005D303FA02F5491B04FA02F52844151E66
:1006D000A2F10102F1DC30BD2DE9F05F05460020FA
:1006E00092469B4688460646814640241BE02846A3
:1006F00041464746224600F02FF853465A46C01A54
:10070000914110D311461846224600F016F82D1AD2
:1007100067EB01084F4622460120002100F00DF84A
:1007200017EB00094E41201EA4F10104DFDC48460E
:1007300031462A464346BDE8F09F202A04DB203A92
:1007400000FA02F1002070479140C2F1200320FA24
:1007500003F3194390407047202A04DB203A21FA22
:1007600002F00021704721FA02F3D040C2F12002CA
:100770009140084319467047202A06DBCB17203AE0
:1007800041FA02F043EAE07306E041FA02F3D04096
:10079000C2F1200291400843194670470029A8BFC2
:1007A0007047401C490008BF20F00100704710B49A
:1007B000B0FA80FC00FA0CF050EA010404BF10BC4F
:1007C000704749B1CCF1200421FA04F411FA0CF17C
:1007D00018BF012121430843A3EB0C01CB1D4FEAB5
:1007E00000614FEA102042BF002010BC704700EBB0
:1007F000C35010440029A4BF10BC7047401C4900DE
:1008000008BF20F0010010BC704710B5141E73F132
:10081000000408DA401C41F1000192185B411A43C0
:1008200001D120F0010010BD2DE9F04D92469B460C
:1008300011B1B1FA81F202E0B0FA80F220329046B2
:10084000FFF77BFF04460F4640EA0A0041EA0B012E
:1008500053465A46084313D0114653EA010019D0B3
:10086000C8F140025046FFF777FF05460E46504656
:1008700059464246FFF761FF084305D0012004E0D6
:1008800020463946BDE8F08D0020054346EAE07673
:100890002C4337430A986305E40AA0EB08000022C2
:1008A000FD0A44EA47540A3002D500200146E9E730
:1008B000010510196941DDE9084500196941BDE8E4
:1008C000F04DA2E72DE9F04D00231A461B1A8A418C
:1008D00003DB00200146BDE8F08DC1F30A52C1F3ED
:1008E000130141F480154FF0000BD10702D100181D
:1008F0006D41521E0027044640F2FF11384601EBBD
:10090000620A3E468046024600204FF48011FFF7FF
:1009100023FFC2197141BB1846EB0100B4EB030C75
:1009200075EB000C04D3E41A65EB000517460E4680
:10093000241908F101006D4180463428E3DDF919DE
:1009400046EB0600091BA84103D24FF0FF321346C5
:1009500001E0002213461BEB070046EB0A51BDE8FD
:10096000F04DFFF752BFC1F30A52C1F3130140F239
:10097000FF3341F480119A4202DA002001467047A9
:1009800040F233439A42A2F2334202DC5242FFF772
:10099000E3BEFFF7D2BE0000064C074D06E0E0685C
:1009A00040F0010394E8070098471034AC42F6D3B6
:1009B000FFF7EEFBA4E80008C4E8000870B58C1847
:1009C00010F8015B15F0070301D110F8013B2A1163
:1009D00006D110F8012B03E010F8016B01F8016B50
:1009E0005B1EF9D12B0705D40023521E0DD401F84C
:1009F000013BFAE710F8013BCB1A921C03E013F815
:100A0000015B01F8015B521EF9D5A142D8D3002049
:100A100070BDFEE77047000070B5012186B0084642
:100A200000F024FE0121102000F044FE204E072299
:100A30000A21304600F006FD07220921304600F069
:100A400001FD00248DF8064001208DF807000225E5
:100A500040028DF8045000908DF8055069463046EC
:100A600000F0B4FC680200908DF8045069463046EE
:100A700000F0ACFC4FF4E130ADF80C400290ADF862
:100A80000E40ADF81040ADF814400C20094CADF804
:100A9000120002A9204601F073FE0121204601F058
:100AA00026FE4021204601F019FE06B070BD000070
:100AB000000002400010014001B5034800990160A8
:100AC00001680029FCD108BDA801002001B5034838
:100AD0000099016001680029FCD108BDA80100202F
:100AE00010B500F0F1F8104C0121204600F0BCFCDC
:100AF0000A20FFF7E1FF0121204600F0B3FC0A20A5
:100B0000FFF7DAFF0121204600F0AEFC00F0E2FA28
:100B10000121002000F0A6FB400704D503484168EE
:100B200041F01001416010BD00080240B4010020F6
:100B30001A4A51680B681046002B80680DDB0B6861
:100B4000DB050AD583685B1C83608368012B00D1B9
:100B5000016051684160012070470B68002B0DDB7C
:100B60000B689B050AD50B68DB0507D401600021E3
:100B70004160012181605068C0680CE00B68002B67
:100B80000ADB0B689B0507D40B68DB0504D483687C
:100B90005B1C8360C868506000207047BC01002067
:100BA00005490028886902D040F0020001E020F0E9
:100BB000020088617047000000900240F0B5124FBB
:100BC00000234FF0004C44F2F45E561E786013E0B0
:100BD00000EB0314C4F800C0C3EBC31505EB4505D7
:100BE00001EB8505C4E901E5B34203D204F1100528
:100BF000E56000E0E0605B1C9342E9D30349C86014
:100C00000348B860F0BD0000BC0100200090024025
:100C10002821002005490028886902D040F40050AE
:100C200001E020F40050886170470000009002400D
:100C3000F0B50F4C00234FF48017561E206011E0D2
:100C400000EB03142760C3EBC31505EB450501EB6F
:100C50008505A560B34203D204F11005E56000E00C
:100C6000E0605B1C9342EBD302490861F0BD0000D9
:100C7000BC0100200090024010B501214C06204626
:100C800000F000FD2046BDE81040002100F0FABC55
:100C900001B581B001980090002801D0401EFAE70C
:100CA0000CBD0000074908B5886940F480108861D0
:100CB000886900904FF6FF70FFF7EAFF009888619F
:100CC00008BD0000009002402DE9FC4101210720F1
:100CD00000F0CCFC0121880300F0ECFC08F03EFBA6
:100CE000012000F0DBFF012400258DF805508DF870
:100CF00004403C4F8DF8065000948DF8074069463B
:100D0000384600F063FB0420009003208DF80500B6
:100D100002268DF804608DF806508DF80740324C9D
:100D20006946204600F052FB0B220221204600F0CB
:100D300089FB69463846009600F048FB0B220121EA
:100D4000384600F07FFB69462046009600F03EFBE7
:100D50000B220121204600F075FB8020009069469F
:100D6000204600F033FB0B220721204600F06AFBEF
:100D7000102000906946384600F028FB0B22042121
:100D8000384600F05FFB202000906946384600F0AE
:100D90001DFB0B220521384600F054FBE014134CD8
:100DA00000906946204600F011FB0B2211462046B8
:100DB00000F048FBA11400916946204600F006FBB4
:100DC0000B220C21204600F03DFB310300916946C7
:100DD000204600F0FBFA0B220D21204600F032FBEA
:100DE000BDE8FC810008024000000240000402400F
:100DF000034900200968C90700D00120704700009E
:100E00000090024030B5084B59680A68C2F30D449F
:100E10009A68156812689268C9685960241F8560CD
:100E2000C0E9004230BD0000BC0100202DE9F047C0
:100E300086B00026044601200096914FCDE90006B9
:100E400038698A4620F01C0502A800F03FFC8D4955
:100E500003988D4A0144914202D245F0080516E0FC
:100E60008A498B4A0144914202D245F00C050EE0BA
:100E70008849894A0144914209D3884908448849EC
:100E8000884202D245F0040501E045F01005B8465D
:100E90003D614FF400420021504600F06DFA4FF4DE
:100EA00000694FF48047A0B17E48FFF7F1FE20684B
:100EB00098B37D4D01980121401C0190504600F0EF
:100EC000D1F9400702D40198A842F3D30198A8426F
:100ED00001D1009637E04FF4805200215046019630
:100EE00000F04AFA00B9009601980121401C0190D7
:100EF000504600F0B7F9800602D40198A842F3D317
:100F00000198A842E5D01F215046019600F0AAF9A9
:100F1000C10603D5C4F8209001E002E026626761B3
:100F20000FE0206A6169C00840EA510082B20021E6
:100F3000504600F021FA00B900966FF07F40FFF7AD
:100F4000A7FE009810B9C4F820906761D8F8000097
:100F50004146564A1040D4E901231A43E36854F845
:100F6000105F2B431A4363681A43A3681A43E3686C
:100F70001A4323691A4354F8143F1A4363681A4307
:100F8000A3681A43E3681A4323691A4302430A60B9
:100F90000E684FF6FF752846FFF77AFE0E60F4E9FB
:100FA00005021043D4E902231A4310432269104377
:100FB00062691043A2691043E269104348604E68B9
:100FC0002846FFF765FE4E60206A8860606AC86048
:100FD00088694FF641721040D4E90B231A43268DDD
:100FE000636B43EA06431A43A36B1A43E36B1A434A
:100FF00002438A618E692846FFF74AFE8E61D4E972
:1010000010021043C861CE692846FFF741FECE6149
:1010100027498A6927480240D4E912031843D4E9D2
:10102000143633431843A36D1843E36D1843236EFE
:101030001843636E1843A36E1843104388618E698A
:101040002846FFF725FE8E61D4E91B021043626F2C
:1010500054F8783F1A431043626840EA8200A2685D
:10106000104340F4000008600C682846FFF710FEAB
:101070000C600098012800D0002006B0BDE8F08781
:101080000080024000D3CEFEC0E1E40040F1E9FD63
:1010900040787D0100796CFC005A6202001F0AFA58
:1010A00080F0FA02FFFF0F00FFFF04000F8120FF16
:1010B00000900240233FDEF8054B8A881844026402
:1010C0000A78D1F8011042EA01214164704700001A
:1010D0000080024010B501214FF0606000F0C6FAB8
:1010E000FFF7CAFD00F0EAF8FFF782FE0128FBD007
:1010F000164800F0FCF8154801214FF4007240F842
:101100001C1B002140F80C1BE0E803211204416085
:1011100001618161C161131183650162C0E913122C
:10112000016641660421C0E91B12890341678901F8
:1011300081674912C1674900C0F884100021034843
:10114000FFF774FE0249486010BD00005C080020F3
:10115000B401002008B50021009109490028086861
:1011600002D040F0040001E020F0040008600868AC
:1011700000904FF6FF70FFF78BFD0098086008BDE8
:101180000080024008B50021009109490028086844
:1011900002D040F0080001E020F008000860086874
:1011A00000904FF6FF70FFF773FD0098086008BDD0
:1011B00000800240F0B5294E002231680B68002BF8
:1011C00001DA0020F0BD40F2F454A04215D9B0FB82
:1011D000F4F5B0FBF4F304FB150505B15B1C012B22
:1011E0000BD0C3F10107C7EBC71707EB470700EBAD
:1011F00087005D1EC0F30C0023E00A6842F04052F5
:101200000A60C0F30C004860086840F000400860C5
:10121000C96818E00F6827F040570F601AB90F68C7
:1012200047F080570F604C60AA4204D10F6847F026
:1012300000570F6048600F6847F000470F60C968AB
:10124000521C9A42E6D3064831604169490703D5EA
:1012500004214161002141600120F0BDBC0100205A
:101260000090024018B500220092124A13694FF60E
:10127000FF7403F01C0304EAC02018434FF4F86322
:1012800003EA8111014321F0020040F001001061E6
:1012900009490098401C00901069C00702D00098CE
:1012A0008842F6D30098884201D1002018BD5069C9
:1012B00080B218BD00800240FFFF040002480168B0
:1012C00041F00101016070470090024000B501202B
:1012D000FFF758FF0120FFF73DFFFFF7E3FC012078
:1012E000FFF798FC01205DF804EBFFF759BC0121E2
:1012F00001600021416081604FF48042C160C0E91B
:101300000412D2108161C0E9071241628162C16298
:101310000163416340228163C0E90F122022C0E9CA
:101320001121C1640165416581658022C165C0E903
:1013300018128166C16601674167D2048167C0E9FE
:101340001F125210C0E921211311C0E92331C0F846
:101350009410C0F89810C0F89C10C0E928125212DE
:10136000C0F8A8209201C0F8AC205212C0E92C218C
:10137000C0F8B8107047000038B500230093114B37
:101380001C694FF6FF7504F01C0405EAC0202043D9
:101390004FF4F86404EA8111014341F003005A61FB
:1013A000186109490098401C00901869C00702D0D4
:1013B00000988842F6D30098884201D1002038BDB9
:1013C000012038BD00800240FFFF0400F0B500227C
:1013D00001274FF0030C0B6807FA02F52B40AB42D4
:1013E0002CD1066853000CFA03F4A64306600E796C
:1013F000D0F800E09E4046EA0E0606600E79012E07
:1014000001D0022E12D18668A64386604E79D0F8AC
:1014100008E09E4046EA0E0686604668AE43466097
:1014200045688E799640B6B235434560C568A54398
:10143000C560CC799C40C3681C43C460521C102A10
:10144000C9D3F0BD4B07DB0E9A40C90810B500EBBD
:101450008100016A0F249C40A1430162016A11438B
:10146000016210BD418370470183704701A001F004
:10147000E7F9FEE7686172646661756C7421212189
:101480000A200D001CB50121082000F0EFF8FF2014
:10149000009000208DF8040002208DF807006946B6
:1014A0000148FFF793FF1CBD000C02401CB5012151
:1014B000102000F0DBF84FF6FF70009001208DF84F
:1014C000040000208DF8060002208DF807008DF83A
:1014D000050069460148FFF779FF1CBD0010024076
:1014E00070B5094DFF231A4605F5807605E010F822
:1014F000014B54402A5D5A40335D491EC9B2F6D2B1
:1015000042EA032070BD00005C9A000810B50B4C45
:10151000207003206070080AA070E170100A20712A
:10152000627106212046FFF7DBFFA071000AE0711F
:101530002046BDE81040082100F0ECBA5C0600200F
:1015400010B50B4C2070062060700B0AA370E17080
:10155000110A2171627101462046FFF7C1FFA07197
:10156000000AE0712046BDE81040082100F0D2BA20
:101570005C06002070B5144D287010206870080AB1
:10158000A870E970100A28716A715000A8710724C8
:10159000002005E0195C2955641C401CA4B280B2EF
:1015A000B0EB420FF6D3E1B20748FFF799FF285599
:1015B000641CA1B2000A6854BDE87040491CC9B25D
:1015C000014800F0A7BA00005C060020FEE7704763
:1015D00030B50F23C27801780125FAB1144A126898
:1015E00001F1E02102F4E062C2F5E062C2F30722F9
:1015F000C2F10404D3404278A24084781C401443D2
:10160000220181F80024007800F01F018D4040097C
:10161000800000F1E020C0F8005130BD01F01F0053
:1016200085404809800000F1E020C0F8805130BDBD
:101630000CED00E0024908430249086070470000D1
:101640000000FA050CED00E00907090E002806DA93
:1016500000F00F0000F1E02080F8141D704700F149
:10166000E02080F80014704770470000044A002909
:10167000116801D0014300E0814311607047000010
:1016800030380240044A0029116801D0014300E0CB
:10169000814311607047000010380240044A00295D
:1016A000116801D0014300E08143116070470000E0
:1016B00040380240044A0029116801D0014300E08B
:1016C00081431160704700004438024070B5204BE0
:1016D0001968204C11F00C0104D01F4E042903D0CE
:1016E000082903D004601BE0066019E0184A121FA5
:1016F0001168C1F38055116801F03F0115B1B6FBC7
:10170000F1F101E0B4FBF1F114681268C4F388143C
:101710006143C2F30142521C5200B1FBF2F101607D
:1017200019680F2202EA11110C4A545C0168E14069
:1017300041601C68072505EA9424145D21FA04F42D
:1017400084601B6805EA5333D25CD140C16070BD30
:10175000083802400024F40040787D011400002085
:10176000034B1A68084322F0EC621043186070477C
:10177000083802402DE9F041804688B0012104205C
:10178000FFF774FF0121C804FFF788FF254F0822E7
:101790000A213846FFF756FE08220B213846FFF78C
:1017A00051FE02258DF814504FF440608DF815500D
:1017B000002404908DF8164001268DF8176004A9C6
:1017C0003846FFF703FEADF808400C20164FADF881
:1017D0000440ADF80A00CDF80080ADF80640ADF841
:1017E0000C406946384600F0CBFF0121384600F036
:1017F0007EFF012240F22551384600F0A8FF4FF449
:101800004070FFF717FF34208DF818008DF819503D
:101810008DF81A408DF81B6006A8FFF7D9FE08B0B6
:10182000BDE8F08100080240004C00402DE9F0477F
:10183000A54E2DED048B3078A44D297900278842E0
:101840001CD1F079D0B1B079C0B1307AB0B1F078B4
:10185000F07800B1EF71F07A317B40EA0120288105
:101860000B219948FFF73CFE2989884203D1E8798A
:101870000A280AD248B196A000F0E2FF2F706F70DC
:10188000EF70BDEC048BBDE8F087DFF8508298ED77
:10189000000A10EE100AFEF7A9FE41EC190BF079D0
:1018A0007F38FEF773FE9FED8E8B53EC182BFEF7FF
:1018B000FEFD53EC192BFEF788FDFEF7DBFE00EE74
:1018C000100A894880ED000AB0797F38FEF75EFE85
:1018D00053EC182BFEF7EBFDFEF7CCFE00EE100AE2
:1018E000824880ED000A307A7F38FEF74FFE53ECD5
:1018F000182BFEF7DCFDFEF7BDFE00EE100A7C485B
:10190000002480ED000AF078DFF8E891C0074FF07E
:101910000801484603D0FFF7A7FD012401E0FFF7C7
:10192000A1FDF0784FF48071800700D5E4B14846FE
:10193000FFF798FDF078400700D5D4B11021484654
:10194000FFF790FDF0784FF40071000700D5B4B1B7
:101950004846FFF787FDF0784FF40061C00648461F
:1019600012D5FFF781FD11E04846FFF77DFD012408
:10197000E0E710214846FFF777FD0124E2E74846FB
:10198000FFF772FD0124E6E7FFF76CFD30794007B1
:1019900000D59CB301214846FFF764FD307900076C
:1019A00000D564B320214846FFF75CFD3079C006BE
:1019B00000D58CB340214846FFF754FD30798006AE
:1019C00000D554B302214846FFF74CFD307940065C
:1019D00000D57CB380214846FFF744FD30794FF4B1
:1019E000806A000600D564B304214846FFF73AFD3B
:1019F00064B351464846FFF737FD2BE000E005E0B1
:101A000001214846FFF730FD0124C7E72021484661
:101A1000FFF72AFD0124C9E700E005E04021484620
:101A2000FFF722FD0124C9E702214846FFF71CFD0C
:101A30000124CBE7FFE780214846FFF715FD01248D
:101A4000CCE704214846FFF70FFDD2E75146484650
:101A5000FFF708FD70799FED280AC00702D088EDD6
:101A6000000A09E0707980070ED07079800703D5ED
:101A7000DFED220AC8ED000A7079C106204806D5BC
:101A800080ED000A10200EE0DFED1E0AF2E771790A
:101A900011F0300F12D07179890605D59FED1A0A21
:101AA00080ED000A202068716879A979884202D007
:101AB0001649052008706879A871DFE69FED140AC1
:101AC00080ED000A6F71EFE75C0700209A010020AB
:101AD0006572726F72200A200D00000094010020D0
:101AE0000000000000C06240480100204C010020BE
:101AF00050010020001002409A99193F9A99993D8F
:101B0000140100209A99993ECDCC4C3E98010020BA
:101B1000CDCCCC3E2DE9F0410E46074600240C4DBD
:101B20000BE04021284600F0ECFD0028F9D0395D9B
:101B3000284600F07FFE641CE4B2B442F1D3402199
:101B4000284600F0DEFD0028F9D0BDE8F081000055
:101B5000004C004030B54FF4FA644A4B6510224601
:101B60002946186B07F072FF186322462946586B06
:101B700007F06CFF586322462946986B07F066FF12
:101B8000986322462946D86B07F060FFD863D3E9F3
:101B90000D211C6B6FF06305A2F2DC52A0F2DC5049
:101BA000A1F2DC51A4F2DC54AA4202DD642A00DA7C
:101BB0000022A84202DD642800DA0020AC4202DDE7
:101BC000642C00DA002400EE101AD3ED0A0AB8EEF5
:101BD000C00A30EE800ABDEEC00A10EE101A0029CD
:101BE00000DA002100EE102AB8EEC00A83ED180AD0
:101BF00000EE100AB8EEC00A83ED190A00EE104A92
:101C0000B8EEC00A83ED1A0A00EE101AD3ED180AD6
:101C1000B8EEC00A60EE800A9FED1B0A80EE801AC3
:101C200000EE901AF8EEE00A83ED181A93ED191AF7
:101C300061EE200A80EE801A83ED191AD3ED1A0A9C
:101C40009FED121A60EE810A80EE801A9FED100A55
:101C500083ED1A1AD3ED180A80EE801A83ED181A54
:101C6000D3ED190A80EE801A83ED191A187A00282C
:101C700007D0401E9FED070A83ED180A83ED1A0A6C
:101C8000187230BDE80000200000FA43DB0F493F26
:101C900000007A4400000000704700000149C1F8CC
:101CA000DC007047000027422DE9F14F86B04FF06D
:101CB00000097A4C01258DF810900DF1100800955F
:101CC000CDE9018441F612464B464A463146069814
:101CD00001F020FD41F2016AADF814A005A802212F
:101CE000CDE900100023012202943146069801F04C
:101CF00011FD8DF810500095CDE9018400231A469E
:101D00003146069801F006FD8DF810900095CDE95A
:101D1000018400231A465146069801F0FBFC6048F6
:101D200003AE0427CDE90240CDE90076002301226D
:101D30005146069801F0EEFC5A48CDE90076CDE90F
:101D40000240002302225146069801F0E3FC564867
:101D5000CDE90076CDE902400023032251460698E2
:101D600001F0D8FC5148CDE90076CDE902400023CE
:101D700004225146069801F0CDFC4D48CDE900768D
:101D8000CDE90240002305225146069801F0C2FC2D
:101D90004FF0050B8DF810B00095CDE901840023BC
:101DA0001A465146069801F0B5FC8DF81090009542
:101DB000CDE9018400231A4641F61341069801F04B
:101DC000A9FC4FF4D05AADF814A005A902208DE863
:101DD00013000023012241F61341069801F09AFCFA
:101DE0008DF810500095CDE9018400231A4641F684
:101DF0001341069801F08EFC8DF810900095CDE906
:101E0000018400231A465146069801F083FC2948B4
:101E1000CDE90076CDE90240002301225146069823
:101E200001F078FC2448CDE90076CDE9024000239A
:101E300002225146069801F06DFC2048CDE900765B
:101E4000CDE90240002303225146069801F062FCCE
:101E50001B48CDE90076CDE902400023042251461B
:101E6000069801F057FC1748CDE90076CDE902400D
:101E7000002305225146069801F04CFC8DF810B065
:101E80000095CDE9018400231A465146069801F0D9
:101E900041FC07B00120BDE8F08F000060AE0A00F1
:101EA0001000406020007A60080060602000FF6041
:101EB00020008160100041602000646020006C60A0
:101EC00010003F60080061600CB5002227490092B5
:101ED0000192086840F4803008604FF4A04308681D
:101EE00000F4003001900098401C0090019810B957
:101EF00000989842F3D10868800334D501200190FE
:101F00001A484030026842F0805202601848026865
:101F100042F44042026015480830026802600268DC
:101F200042F400420260026842F4A0520260031FC1
:101F3000104A1A600A6842F080720A600A689201C8
:101F4000FCD50D4940F205720A60016821F00301D9
:101F50000160016841F0020101600168C1F3810183
:101F60000229FAD10CBD01920CBD000000380240DC
:101F70000070004019544007003C024000F068BB6C
:101F800070B50E480E490068B0FBF1F0401EB0F18C
:101F9000807F11D24FF0E024606165170F21284641
:101FA000FFF752FB0020A061072020612846BDE812
:101FB00070400021FFF748BBFEE700000000002052
:101FC00040420F00124810B5016841F470010160F1
:101FD0001048016841F0010101600E4A00210832F9
:101FE000116002680C4B1A400260031D0B4A1A6014
:101FF000026822F48022026006480C300160FFF77C
:1020000063FF03494FF000608039086010BD000095
:1020100088ED00E000380240FFFFF6FE103000249B
:1020200070B5134D0121284600F09CFA012813D108
:102030001049114BA1F18004D1E90820D21840F1D8
:102040000000C1E9082001206062A06A50B101F0DF
:102050001BFCE06A0A30E0622846BDE870400121BE
:1020600000F060BA01F0DAFB01F0C0FBF1E700001C
:1020700000040040A800002040420F002DE9FF4767
:10208000DFF88C82A34D42F20F7698F800004FF4EF
:10209000FA7700064FF0000435D40221284600F0FC
:1020A00061FA80B30221284600F03CFA98F800005B
:1020B0004006284645D500F04DFA80B2A8F80C003D
:1020C000B8F80A204146904201D20E6500E00C6546
:1020D000801A0A6D104408630A6C801A00D54042C9
:1020E000B84207DD0879401CC0B20871052801D844
:1020F0000A6300E00C71086B086488F80040002156
:10210000284600F043FA98F80100000643D4042161
:10211000284600F027FAA0B30421284600F002FA6E
:1021200098F801004006284653D500F015FA80B211
:10213000A8F81000B8F80E20414690420ED24E6525
:102140000DE000F007FA0146A8F80A1098F8001010
:1021500041F0400188F800100221D1E74C65801A57
:102160004A6D104448634A6C801A00D54042B84218
:1021700008DD4879401CC0B24871052802D84A637E
:1021800001E008E04C71486B486488F80140002188
:10219000284600F001FA98F80200000643D408210E
:1021A000284600F0DFF9A0B30821284600F0BAF96C
:1021B00098F802004006284652D500F0CFF980B2C8
:1021C000A8F81400B8F81220414690420ED28E654D
:1021D0000DE000F0C1F90146A8F80E1098F80110C2
:1021E00041F0400188F801100221D1E78C65801A86
:1021F0008A6D104488638A6C801A00D54042B842C8
:1022000008DD8879401CC0B28871052802D88A632D
:1022100001E008E08C71886B886488F80240002136
:10222000284600F0C3F998F80300000641D41021B5
:10223000284600F097F998B31021A946284600F0E7
:1022400071F998F803004546400655D5484600F018
:1022500087F980B22883E98A88420ED2EE650DE0C4
:1022600000F07CF90146A8F8121098F8021041F02D
:10227000400188F802100221D2E7EC65401AE96DAE
:102280000844E863E96C401A00D54042B84208DDD2
:10229000E879401CC0B2E871052802D8E96301E082
:1022A00007E0EC71E86BE864EC700021484600F050
:1022B00087F9FFF74FFC98ED1A0A10EE100AFEF7A7
:1022C00095F998ED190A06460F4610EE100AFEF72A
:1022D0008DF998ED180A04460D4610EE100AFEF727
:1022E00085F98DE8F00041EC100B0BA053EC102B9E
:1022F00000F0A6FABDE8FF874C46484600F030F9EA
:10230000E882E878022140F04000E8702046CEE7FD
:10231000E800002000040140204D6F76655F583DC5
:10232000203D202566202C204D6F76655F593D208D
:102330002566202C204D6F76655F5A3D202566204E
:102340002C0000007FB50D46044601210220FFF756
:10235000B1F90194ADF800500024154DADF80840D6
:10236000ADF802408DF80A406946284600F032F97F
:102370004FF44070FFF75EF92C218DF80C1003200C
:102380008DF80D008DF80E4001208DF80F0003A888
:10239000FFF71EF901221146284600F0EFF801214F
:1023A000284600F0CCF80121284600F0BEF87FBD99
:1023B0000004014070B5514C0121204600F0D2F8D4
:1023C00000287DD00121204600F0ACF84C4A10785E
:1023D0004C4E002548B14C480178491C01700078EA
:1023E0001E2802D3157001203070484CE069401C53
:1023F000E061652805D1042200210520FFF786F859
:10240000E561206A401CA0F540712062E9395ED187
:10241000D4ED0B0A9FED3E0A60EE200AFCEEE00AC6
:1024200010EE900A010A39486C300170D4ED0B0AA5
:1024300020EE200ABCEEC00A10EE101A4170DFED4B
:10244000350A94ED0B0A20EE800ABCEEC00A10EEAD
:10245000101A090A817094ED0B0A20EE800ABCEE76
:10246000C00A10EE101AC1709FED2B0AD4ED0B0AB2
:1024700060EE200AFCEEE00A10EE901A090A0171E3
:10248000D4ED0B0A20EE200ABCEEC00A10EE101AA2
:1024900041719FED220AD4ED0B0A60EE200AFCEE9A
:1024A000E00A10EE901A090A0172D4ED0B0A20EE30
:1024B000200ABCEEC00A10EE101A4172034600E07A
:1024C0001AE006220A210120FFF754F82562606A0B
:1024D000401CA0F51C516062113906D110480288D9
:1024E00001210620FFF72CF865623078012803D11E
:1024F000BDE87040FFF79AB970BD000000040140CC
:102500009B0100209A0100209C010020E80000208F
:1025100000007A4400803B450080BB440000FA4440
:10252000A4010020C943018270470029018802D01C
:1025300041F0010101E021F0010101807047002913
:1025400030F8441F02D041F4004101E0C1F30E0114
:1025500001807047406B7047806B7047C06B70475D
:10256000006C704702460020138A92890B4202EAEF
:10257000010202D0002A00D001207047002A82897F
:1025800001D00A4300E08A4382817047028C22F026
:1025900002020A4302847047028C4FF6FF7322F056
:1025A000200203EA0111114301847047028C4FF6A7
:1025B000FF7322F4007203EA012111430184704782
:1025C000028C4FF6FF7322F4005203EA01311143EB
:1025D0000184704730B50288164C174DA0420DD0CB
:1025E000A8420BD0B0F1804F08D0144B984205D0D0
:1025F000134B984202D0134B984203D122F0700340
:102600004A881A43104B984206D0104B984203D088
:1026100022F440730A891A4302804A68C2620A8817
:102620000285A04201D0A84201D1897A0186012108
:10263000818230BD000001400004014000040040E0
:1026400000080040000C0040001000400014004052
:102650000B484168491C416041680A4A914206D3CF
:102660000168491C016041685242114441600448BC
:10267000001F0168002902D00168491E01607047EF
:10268000AC01002000CA9A3B70B5114D40F22554B0
:102690002146284600F03CF898B1284600F0C6F8DC
:1026A0000C4BC0B21978012911D0DA780A491144CB
:1026B000521CDA70087000209870D878012800D178
:1026C000587021462846BDE8704000F00AB870BD39
:1026D000004C00409A0100205C070020C9430180A3
:1026E00070470A0A01219140C943018070470029BF
:1026F000818902D041F4005101E021F4005181812F
:1027000070470246002012880A4200D0012070471C
:1027100070B501F01F0501260024C1F3421306FA2B
:1027200005F2012B0FD0022B0FD0838A4FEA112123
:102730000088134206FA01F600EA060001D000B153
:102740000124204670BD8389F0E7038AEEE710B5C7
:10275000C1F3421301F01F040121A140012B07D056
:10276000022B07D01430002A026805D00A4304E087
:102770000C30F8E71030F6E78A43026010BD000025
:102780007FB50446008A0D46C98820F440500143B5
:102790002182A08941F20C618843A9882A891143CA
:1027A0006A8902431143A181A08A20F44071A8895B
:1027B0000843A0826846FEF789FF1A48844202D087
:1027C0001948844201D1039800E00298A1890904C4
:1027D00000EBC00101EB0010296801D5490000E0C1
:1027E0008900B0FBF1F06422B0FBF2F109010B09A2
:1027F0006FF018056B4300EB8300A3891D044FF0B5
:10280000320306D503EBC000B0FBF2F000F0070086
:1028100005E003EB0010B0FBF2F000F00F000843FE
:1028200020817FBD00100140001401408088C0F36A
:1028300008007047C1F3080181807047FEE700007F
:102840000FB4054B10B503A9044A029800F058FBD9
:1028500010BC5DF814FB000051920008300200200B
:102860000FB4084B10B504A902AA039800F048FB66
:10287000044602A9002000F0DAFE204610BC5DF8F4
:1028800014FB00002F36000803B4019841000098A3
:1028900050EAC12018BF04204A0D18BF40F00100C3
:1028A00040F2FF72B2EB515F08BF40F00200012816
:1028B00008BF052002B0704770B59B482DED020B94
:1028C0002DED068B079D25F00044A04218DC9748AB
:1028D000844202DC0AD1069840B19DED060BBDECA6
:1028E000068B02B0BDE8704000F015BA002DCCBFD9
:1028F0009FED8F0B9FED900BBDEC068B02B070BD72
:102900008F48A04215DD8F48A042D8BF4FF0FF345A
:1029100058DD9DED060B51EC100BFFF7B5FF0428B9
:1029200008BF00F005FA9DED060BBDEC068B02B06A
:1029300070BD9DED060B51EC100B06F07DFCCDE952
:10294000060181489FED828BA0423CDD8248A04277
:102950001FDD00249FED82AB9DED060B53EC1A2B7F
:1029600051EC100BFDF78AFC9DED060B41EC190BA9
:1029700053EC1A2B51EC100BFDF727FD53EC182BE1
:10298000FDF71DFD53EC192BFDF791FDCDE9060177
:1029900049E09DED060B012453EC182B51EC100B74
:1029A000FDF76CFC9DED060B41EC190B53EC182B5D
:1029B00051EC100BFDF703FD53EC192BFDF777FDE0
:1029C000CDE906012FE06848A0421FDD02249FEDFB
:1029D000689B9DED060B53EC192B51EC100BFDF78A
:1029E000F4FC53EC182BFDF749FC9DED060B41EC74
:1029F000180B53EC192B51EC100BFDF7E0FC53ECCA
:102A0000182BFDF754FDCDE906010CE09DED060BFA
:102A1000032453EC102B9FED580B51EC100BFDF7DA
:102A200046FDCDE906019DED060B53EC102B51EC54
:102A3000100BFDF7CAFC41EC180B53EC182BFDF7FB
:102A4000C4FC41EC190B4E480621B0EE490AF0EEE9
:102A5000690A784400F0E3F853EC182B51EC100BA2
:102A6000FDF7B3FC41EC180B4648B0EE490AF0EE16
:102A7000690A0521784400F0D2F853EC192B51EC87
:102A8000100BFDF7A2FC41EC100B51EC180B53ECB2
:102A9000102B002C0EDAFDF7F1FB9DED061B53EC1D
:102AA000112BFDF792FC9DED061B53EC112BFDF74E
:102AB00089FC35E0FDF7E2FB9DED061B53EC112B85
:102AC000FDF783FC41EC100B2F48784400EBC40069
:102AD00090ED001B51EC100B53EC112BFDF76FFC2C
:102AE0009DED061B53EC112BFDF769FC41EC100B1F
:102AF0002648784400EBC40090ED001B51EC100B0D
:102B000053EC112BFDF75EFC41EC100B002DA2BF26
:102B1000BDEC068B02B070BD51EC100B81F0004192
:102B200041EC100B01E70000000010440000F07FB2
:102B3000182D4454FB21F93F182D4454FB21F9BFB3
:102B40000000DC3F0000203E0000F33F00000000DA
:102B5000000000000000F03F0000E63F0000000021
:102B60000000000000000040008003400000000062
:102B7000000000000000F83F000000000000F0BF6F
:102B800042BD0000F8BC000082BC00003ABC00005E
:102B90002DED020B019820F0004001909DED000BFF
:102BA00002B0704700B52DED048BB0EE409AF0EE08
:102BB000609A83B051EC190BFDF784FE41EC180BC1
:102BC00018EE100A18EE901A8DED008B002818BF31
:102BD0000120084320F00040C0F17F6000F1E04098
:102BE000C00F14D019EE101A19EE900A8DED009B4B
:102BF000002918BF0121084320F00040C0F17F6088
:102C000000F1E040C00F04BF012000F0B1F8B0EEC9
:102C1000480A03B0F0EE680ABDEC048B00BD70B545
:102C200004462DED028B4D1E00EBC500B0EE408A30
:102C3000F0EE608A90ED000B35F0060017D053ECF3
:102C4000182B51EC100BFDF7C0FB41EC100B6D1E67
:102C500004EBC50090ED001B51EC100B53EC112B55
:102C6000FDF70CFB41EC100B35F00600E7D1022D0F
:102C700036D0042D1CD0062D1CBFBDEC028B70BDC0
:102C800053EC182B51EC100BFDF79FFB94ED0A1B36
:102C900053EC112BFDF7F2FA53EC182BFDF795FBD3
:102CA00094ED081B53EC112BFDF7E8FA41EC100BE7
:102CB00053EC182B51EC100BFDF787FB94ED061B22
:102CC00053EC112BFDF7DAFA53EC182BFDF77DFBD3
:102CD00094ED040B53EC102BFDF7D0FA41EC100BE4
:102CE00053EC182B51EC100BFDF76FFB94ED021B0E
:102CF00053EC112BFDF7C2FA53EC182BFDF765FBD3
:102D000094ED001B53EC112BFDF7B8FABDEC028BD0
:102D100041EC100B70BD10B553EC102B51EC100BA7
:102D2000FDF7ACFA41EC100B10BD000000000000F4
:102D30009FED050B10B553EC102B51EC100BFDF76C
:102D400044FB41EC100B10BD00000000000000101F
:102D500002E008C8121F08C1002AFAD17047704764
:102D6000002001E001C1121F002AFBD170470000C2
:102D70000149086070470000340200202DE9FF5F20
:102D800082B00021DDE90430020DDDF840B00343DC
:102D900018D044F61050A2F2FF3242431514119895
:102DA00001281FD0A5EB0B00401C5FEA000A4FF082
:102DB00000064E4FDFF83891B046504615D5CAF19F
:102DC000000413E0119801244AA3012801D16FEAFD
:102DD0000B010298119AC0E90031C0E9024206B025
:102DE000BDE8F09FCBF10000DFE704460021404A38
:102DF000491842EB0450CDE9001012E0E00707D07B
:102E000032463B4640464946FDF7DFFA8046894652
:102E100032463B4610461946FDF7D7FA06460F469E
:102E20006410002CEAD1DDE90401DDE90023BAF1E8
:102E3000000F06DAFDF7C9FA42464B46FDF7C5FA20
:102E400005E0FDF734FB42464B46FDF730FB0446F8
:102E50000E460022284BFDF7F5FB03D84FF0FF305C
:102E6000014607E00022254B20463146FDF706FAD1
:102E7000FDF779FD102409E0002C0ADB0A2200236B
:102E8000FDF72AFC039B30321A55641E50EA0102FA
:102E9000F2D1641C039AC4F111031444119A012A5B
:102EA00003D0012208430DD10AE0084304D00020DA
:102EB0004FF0110B119072E7A3EB0B056D1E0DE0A7
:102EC0005B4504DD4FF0000205F1010504E003DA83
:102ED0004FF00002A5F10105002AECD002981199EB
:102EE000C0E90231C0E9004579E700000000144064
:102EF0000000F03F300000000000F0430000E03F21
:102F00002DE9FF4F95B09B468946064600250FE206
:102F1000252877D100242746F84A0121059400E0AE
:102F2000044316F8013F203B01FA03F01042F7D1A9
:102F300030782A2811D06FF02F033078A0F13002BA
:102F4000092A16D8059A44F0020402EB820203EB28
:102F500042021044761C0590EFE759F8042B0592C5
:102F6000002A03DA504244F40054059044F002046D
:102F7000761C30782E2816D116F8010F44F0040480
:102F80002A280DD06FF02F023078A0F13003092BE2
:102F900009D807EB870302EB4303C718761CF3E756
:102FA00059F8047B761C30786C280FD006DC4C284E
:102FB00017D068280DD06A2814D104E0742810D0E6
:102FC0007A280FD10DE044F400140AE044F4801490
:102FD00001E044F440147278824202D104F5801476
:102FE000761C761C307866280BD013DC582877D0F6
:102FF00009DC002875D04528F6D04628F4D04728AB
:103000001AD19DE118E0632835D0642879D065286D
:1030100012D195E1702873D008DC6728F1D06928B7
:103020006FD06E280DD06F2806D1B5E073282CD054
:10303000752875D0782874D05A46179990476D1C1A
:1030400075E1C4F30250022809D003280DD0D9F845
:10305000001004280DD00D6009F1040967E1D9F8CA
:103060000010EA17C1E90052F6E7D9F800100D8008
:10307000F2E70D70F0E719F8041B8DF8001000203E
:103080008DF80100EA46012003E059F804AB4FF047
:10309000FF3061074FF0000102D40DE008F101019B
:1030A0008846B9420FDA8045F8DB1AF80810002983
:1030B000F4D108E008F1010188468142FADB1AF8F0
:1030C00008100029F6D105985B46A0EB08072146B9
:1030D0003846179A00F094FA284400EB080507E0F8
:1030E0004DE029E10DE01AF8010B5A461799904777
:1030F000B8F10108F7D25B4621463846179A13E12A
:1031000042E00A220092C4F302524FF0000A022A5F
:1031100008D059F804CB032A4FEAEC710AD00DE02D
:1031200029E02AE009F1070121F00702F2E802C1D3
:10313000914609E00FFA8CFC4FEAEC71042A03D1A6
:103140004FFA8CFC4FEAEC71002907DA0A4600219D
:10315000DCF1000C61EB02012D2202E0220504D516
:103160002B228DF80420012203E0E20701D0202267
:10317000F7E7904659E00A2102E010220DE0102105
:103180004FF0000A00910BE010224FF0000A44F0CB
:1031900004040827009203E008224FF0000A00927E
:1031A000C4F30252022A05D059F804CB0021032AA5
:1031B00008D009E009F1070121F00702F2E802C195
:1031C000914605E01FFA8CFC042A01D10CF0FF0C9B
:1031D0004FF00008220728D5702806D0009B83F006
:1031E000100353EA0A0305D00EE040228DF80420B4
:1031F000012208E05CEA010206D030228DF80420AA
:103200008DF8050002229046009B83F0080353EAE4
:103210000A030AD15CEA010201D1620705D5302216
:103220008DF804204FF001087F1E582804D034A0E8
:1032300003900EA802900DE036A0F9E753466046D1
:10324000009AFDF749FA84460398825C0298401E72
:10325000029002705CEA0100F0D1029806A9081AF7
:1032600000F1200A600702D524F4803400E0012731
:10327000574502DDA7EB0A0000E0002000EB0A0141
:10328000009005984144401A0590E00306D45B463F
:103290002146179A059800F0B3F90544002706E087
:1032A00001A85A46C05D179990476D1C7F1C474581
:1032B000F6DBE0030CD55B462146179A059800F033
:1032C0009FF9054404E030205A46179990476D1C39
:1032D0000099481E00900029F5DC08E00298029948
:1032E0005A460078491C0291179990476D1CBAF113
:1032F0000001AAF1010AF1DC65E1000009280100E2
:10330000303132333435363738396162636465665B
:10331000000000003031323334353637383941421D
:10332000434445460000000000F058F90544761C6F
:10333000307800287FF4ECAD19B02846BDE8F08F56
:10334000620700D4062709F1070222F0070CFCE807
:103350000223E14603F000485FEA080C02D00FF2B6
:10336000702C0DE05FEA045C02D50FF2682C07E0D8
:103370005FEAC47C02D00FF2602C01E0AFF2700C67
:103380004FF0FF3823F00043CDF850C065280CD033
:1033900006DC452809D046281DD047283DD13DE010
:1033A000662818D067287ED138E00021112F01DB74
:1033B000112000E0781CCDE9000106A90EA8FFF756
:1033C000DDFCDDE90F010E9A03910021009207F167
:1033D000010A04914DE04FF000400097CDE9011043
:1033E00006A90EA8FFF7CAFCDDE90F0203920E9BA7
:1033F00011990022DDF80CA00093049211B9791CF8
:1034000000EB010AB7EB0A0004D4C0F1FF3007F16A
:10341000010A0490AAEB0700019044E0012F00DAB2
:1034200001270021112F01DD112000E03846CDE9F0
:10343000000106A90EA8FFF7A1FCDDE90F010E9A15
:103440000391002104910092BA4621070CD40399FC
:10345000514500DA8A46BAF1010F05DD009AAAF15A
:103460000101515C302908D0B84202DA10F1040F92
:1034700006DA0121CDE9011015E0AAF10101E9E721
:10348000002805DC049901440491AAEB000102E044
:10349000411C514500DD8A460499401A401C0190A8
:1034A0004FF000400290200704D40198504501DB02
:1034B000CDF8048000208DF84F0002980DF14F07E1
:1034C000B0F1004F25D02B200E9002984FF002084B
:1034D00000280CDA404202902D200E9007E00A21CD
:1034E0000298FDF7E3F83031029007F8011DB8F1BA
:1034F0000001A8F10108F2DC02980028EFD1791E42
:103500000E980870307800F0200040F0450007F871
:10351000020D12A8C01B00F107081498007800B132
:10352000012000EB0A01019801EBE071059841448C
:10353000401A401E0590E00306D45B462146179AC8
:10354000059800F05DF805441498007818B15A46C3
:10355000179990476D1CE00324D55B462146179AC6
:10356000059800F04DF805441CE00498002807DB9E
:10357000DDE90301884203DD0098405C179901E012
:10358000179930205A469047049805F10105401CD0
:1035900004900198401E019004D12E205A4617999C
:1035A00090476D1CBAF10001AAF1010ADDDC05E0CB
:1035B00017F8010B5A46179990476D1CB8F1000196
:1035C000A8F10108F4DC5B462146179A0598ABE6A2
:1035D0002D0000002B000000200000002DE9F0412C
:1035E000044600251E461746880404D405E03946E3
:1035F0002020B0476D1C641EF9D52846BDE8F08137
:103600002DE9F041044600251E469046C80301D529
:10361000302700E02027880404D505E041463846DD
:10362000B0476D1C641EF9D52846BDE8F0810A68D4
:10363000531C0B601070704710B50028029C03D01B
:1036400040F80C1B80E81C0010BD002800D08068EA
:10365000704770B515460B46040018D0A068B0B18D
:103660003BB1D4E90001E26801FB02011846FCF716
:10367000D8FD55B160682169401CB0FBF1F201FB37
:1036800012006060A068401EA060002070BD4FF076
:10369000FF3070BD0122FFF7DCBF10B50021F8B18B
:1036A000036982689A420FD1416959B1D0E9001289
:1036B000C46802FB0411521CB2FBF3F403FB142296
:1036C00042600DE0002010BD41681144B1FBF3F4ED
:1036D00003FB14110468C368521C01FB03418260A0
:1036E000084610BD10B50021094B4FF6FF7400E0ED
:1036F000491C01EB811233F81220A24201D0824210
:10370000F6D101EB811003EB4000801C10BD0000DE
:10371000CCAD00087FB50DF1200C1C4615460E46B9
:103720009CE80E000DF1040C00948CE80E0001469C
:103730002B463246024801F013FB04B070BD000076
:10374000CC01002040F2FF11FCF784BD0148006865
:1037500001F0E3BDCC0100200146014801F0E0BDCD
:10376000CC010020002100F001B800000A4601460B
:10377000014802F077BB0000CC010020014803F0B3
:1037800089BA0000CC01002038B50C464FF47A719C
:10379000009302FB01F301462246024803F07AFC43
:1037A00038BD0000CC01002070B50446084D002053
:1037B000401C00EB800205EB02131A68561C05D072
:1037C000A242F5D15A688A42F2D170BD002070BD84
:1037D0005C9C00080146014803F03BBECC01002080
:1037E000401CC0B2072800D901207047014804F0EE
:1037F00057B8000000490020014804F0F0BC000068
:10380000CC01002001460020AFF300800A460146AB
:10381000014804F026BD0000CC010020002000F08B
:1038200001B800000146014804F0E6BDCC010020CB
:103830000A460146014804F0B1BF000000490020DB
:103840004FF6FF714ABA02804ABA428049BA818073
:1038500040F201114ABAC2804ABA028149BA418192
:1038600048F6A40149BA81817047000013460A4610
:103870000146014805F07ABBCC0100200146014811
:1038800005F095BCCC0100202DE9F04F4FF4FA6013
:103890002DED108B8BB0FFF7B5FFDFF85C84D8F807
:1038A00054000088010702D4C0B2A8F81200D8F86A
:1038B0005C000088010702D4C0B2A8F81400D8F850
:1038C00064000088010702D4C0B2A8F81600D8F836
:1038D0006C000088010702D4C0B2A8F81800D8F81C
:1038E00074000088010702D4C0B2A8F81A00D8F802
:1038F0007C000088010702D4C0B2A8F81C00FE4F6B
:10390000803778680088010702D4C0B2A8F81E008A
:10391000F8680088010702D4C0B2A8F820009FED23
:10392000F79BF8488DED049BB0EE49AA90ED000A94
:10393000F0EE69AAB0EE49BAB1EE400AF0EE69BA0B
:10394000B0EE49CAF0EE69CAB0EE49DAF0EE69DAD3
:10395000B0EE49EAF0EE69EAB0EE49FAF0EE69FA43
:1039600010EE100AFCF742FE41EC180BE64890ED11
:10397000000A10EE100AFCF739FE41EC100BE34888
:103980008DED020B90ED000A10EE100AFCF72EFEF2
:1039900041EC100B8DED060BFFF7FAF88DED000BE7
:1039A0009FEDDB1B51EC100B53EC112BFCF74AFE87
:1039B00064D89FEDD70B53EC102B9DED060B51EC0B
:1039C000100BFCF73FFE59D8B0EE480AF0EE680A3B
:1039D000FFF7DEF89FEDD0ABB0EE409AF0EE609AC4
:1039E00053EC1A2B51EC190BFCF72CFE0FD8B0EE50
:1039F000490AF0EE690A53EC182B51EC100BFCF756
:103A000056FD53EC1A2BFCF7E0FC41EC180BB0EE22
:103A100048AAF0EE68AAB0EE489AF0EE689AB0EEC6
:103A200048BAF0EE68BAB0EE48CAF0EE68CA9FED48
:103A3000BC0BFEF741FFB0EE40EAF0EE60EA9FED0E
:103A4000BAFB51EC100B53EC1F2BFCF7BBFC0D46E3
:103A5000044645EC1D0BB0EE4E0AF0EE6E0A53EC38
:103A60001F2B51EC100BFCF7AAFC0B4643EC1F0B71
:103A700045EC1E4B8DED04FB41EC1F0B9DED000B47
:103A80009FEDA31B51EC100B53EC112BFCF7DAFD4F
:103A900025D89FEDA70B53EC102B9DED060B51EC99
:103AA000100BFCF7B7FD1AD8B0EE48AAF0EE68AAE2
:103AB00051EC180B81F000410B4643EC190B41EC23
:103AC0001B0BB0EE48CAF0EE68CA9FED97DB9FED86
:103AD0009AFB8DED04FBB0EE4DEAF0EE6DEAB0EE30
:103AE000480AF0EE680AFFF753F88DED080B9FEDDA
:103AF0008A1B51EC100B53EC112BFCF7A3FD7DD866
:103B00009DED020BFFF744F88DED060B9FED821B38
:103B100051EC100B53EC112BFCF794FDEFD89DEDFD
:103B2000000B9FED871B51EC100B53EC112BFCF796
:103B300071FD63D29DED020B51EC180B53EC102B71
:103B4000FCF7B5FC41EC100BFFF722F8B0EE401A81
:103B5000F0EE601A8DED001B9DED060B53EC102B63
:103B60009DED020B51EC100BFCF7A1FC9DED001B31
:103B700053EC112BFCF729FC41EC100B8DED060BDF
:103B8000FFF706F88DED000B9FED6F1B51EC100B4E
:103B900053EC112BFCF73EFD9FED580B53EC102B13
:103BA0009DED020B51EC100B02D2FCF74BFD78E2BD
:103BB000FCF748FD7ED29DED000BB0EE409AF0EE92
:103BC000609A9FED63DB9DED060B53EC1D2B51ECD2
:103BD000100BFCF753FB894649EC100B054653ECE0
:103BE000102B51EC100BFCF7F0FB9FED5BCB53EC73
:103BF0001C2BFCF743FB41EC100B00E011E2FEF73D
:103C0000D1FFB0EE40AAF0EE60AA51EC180B81F0A3
:103C100000410E4646EC100B044653EC1A2B51ECB7
:103C2000100BFCF7D2FB53EC192BFCF740FC9DED7D
:103C3000000B41EC1A0BB0EE409AF0EE609A49ECA2
:103C4000105B53EC102B51EC100BFCF7BEFB53EC4C
:103C50001C2BFCF713FB41EC100BFEF7A3FFB0EE9F
:103C6000401AF0EE601A46EC104B53EC112B51EC5D
:103C7000100BFCF7AAFB53EC192BFCF718FC9DED7D
:103C8000000B41EC190B53EC1D2BB0EE40BAF0EEDB
:103C900060BA9DED060B51EC100BFCF790FB0E4645
:103CA00046EC100B044653EC102B51EC100BFCF7B8
:103CB0008CFB00E0B3E053EC1C2BFCF7DFFA41EC8B
:103CC000100BFEF76FFF53EC182B51EC100BFCF7A9
:103CD0007CFB53EC1B2BFCF7EAFB9DED000B41EC4E
:103CE0001B0BB0EE40DAF0EE60DA46EC104B53EC12
:103CF000102B51EC100B33E02800002000000000D6
:103D000000000000480100204C010020500100206C
:103D1000333333333333D33F000000000000E03F40
:103D2000DBB66DDBB66DEB3F182D4454FB21F93F3C
:103D3000333333333333D3BF182D4454FB21F9BF0E
:103D4000333333333333C33F000000000000F83F08
:103D5000E17A14AE47E1DA3F4082E2C798BBCE3F3A
:103D6000FCF733FB53EC1C2BFCF788FA41EC100BEF
:103D7000FEF718FF53EC182B51EC100BFCF725FB4A
:103D800053EC1D2BFCF793FB49EC105B41EC1C0B37
:103D900053EC102B9FEDFD8B51EC180BFCF787FBC0
:103DA00041EC100BFEF788FDB0EE40DAF0EE60DA81
:103DB00049EC105B51EC180B53EC102BFCF777FB24
:103DC00041EC100BFEF778FD51EC100B81F0004137
:103DD00041EC100B51EC180B8DED040B46EC104B25
:103DE00053EC102BFCF763FB41EC100BFEF764FD6A
:103DF00051EC100B81F0004146EC104B41EC1E0BD6
:103E000053EC102B51EC180BFCF751FB41EC100B51
:103E1000FEF752FDB0EE40FAF0EE60FA41E11FED20
:103E2000490B53EC102B9DED020B51EC100BFCF7E2
:103E3000F1FBF3D29DED000B1FED3BDBB0EE409AA2
:103E4000F0EE609A9DED060B53EC1D2B51EC100B20
:103E5000FCF7B5FA894649EC100B054653EC102BDC
:103E600051EC100BFCF7B1FA1FED45CB53EC1C2BBA
:103E7000FCF704FA41EC100BFEF794FEB0EE40AAFA
:103E8000F0EE60AA51EC180B81F000410E4646ECB2
:103E9000100B044653EC1A2B51EC100BFCF795FA5F
:103EA00053EC192BFCF703FB9DED000B41EC1A0BB7
:103EB000B0EE409AF0EE609A49EC105B53EC102B98
:103EC00051EC100BFCF781FA53EC1C2BFCF7D6F9E4
:103ED00041EC100BFEF766FEB0EE401AF0EE601AF1
:103EE00046EC104B53EC112B51EC100BFCF76DFA18
:103EF00053EC192BFCF7DBFA9DED000B41EC190B91
:103F000053EC1D2BB0EE40BAF0EE60BA9DED060BFF
:103F100051EC100BFCF7B2F90E4646EC100B0446C0
:103F200053EC102B51EC100BFCF74FFA53EC1C2BFD
:103F3000FCF7A4F941EC100BFEF734FE53EC182B00
:103F400051EC100BFCF741FA53EC1B2BFCF7AFFACA
:103F50009DED000B41EC1B0BB0EE40DAF0EE60DAA9
:103F600046EC104B53EC102B51EC100BFCF72DFAD8
:103F700053EC1C2BFCF782F941EC100BFEF712FE00
:103F800053EC182B51EC100BFCF71FFA53EC1D2BC4
:103F9000FCF78DFA49EC105B41EC1C0B53EC102B39
:103FA0009FED7A8B51EC180BFCF781FA41EC100B6A
:103FB000FEF782FC51EC100B81F0004149EC105BE4
:103FC00041EC1D0B53EC102B51EC180BFCF76FFA66
:103FD00041EC100BFEF770FC8DED040B46EC104B22
:103FE00051EC180B53EC102BFCF761FA41EC100B61
:103FF000FEF762FCB0EE40EAF0EE60EA46EC104BF1
:1040000051EC180B53EC102BFCF751FA41EC100B50
:10401000FEF752FC51EC100B81F0004141EC1F0BFC
:104020003FE09DED080B9FED5B1B51EC100B53EC3B
:10403000112BFCF707FB34D89DED020BFEF7A8FD12
:104040001FEDC11B51EC100B53EC112BFCF7E2FAE6
:1040500027D89DED000B1FEDC61B51EC100B53EC48
:10406000112BFCF7D7FA1CD851EC180B81F000414A
:104070000B4643EC1A0B41EC190BB0EE48BAF0EECC
:1040800068BAB0EE48CAF0EE68CA1FEDE4DB8DED09
:1040900004DBB0EE4DEAF0EE6DEAB0EE4DFAF0EE74
:1040A0006DFA98F800300720022106220F2503261A
:1040B0000124012B79D0022B72D0032B71D088F808
:1040C0000040D8F850301A8098F80130012B69D0A0
:1040D000022B68D0032B67D088F80140D8F85830FD
:1040E0001A8098F80230012B73D0022B72D0032B68
:1040F00071D088F80240D8F860301A8098F8033000
:10410000012B69D0022B68D0032B67D088F80340BD
:10411000D8F868301A8098F80430012B71D0022B3F
:1041200070D0032B6FD088F80440D8F870301A8014
:1041300098F80530012B67D0022B70D0032B6FD07D
:1041400088F80540D8F878301A8098F80630012BA6
:1041500067D0022B78D0032B77D088F806403B68D5
:104160001A8098F80730012B70D0022B6FD0032BE8
:104170006ED088F80740B868028098F80820074891
:104180004FF48051012A6ED006E30EE05C8FC2F539
:10419000285CDF3FB81E85EB51B88E3F001002400F
:1041A0000DE01CE022E030E03CE0B8F81230312BAA
:1041B00001D188F80010D8F85030188084E7B8F89A
:1041C0001230332B01D188F80060D8F850301D80B0
:1041D0007AE72EE03DE047E04DE057E060E0B8F8D8
:1041E0001230372BEAD188F808406DE7D8F85830FC
:1041F0001880B8F81430312B7FF473AF88F80110B1
:104200006FE754E05EE067E06DE0D8F858301D805D
:10421000B8F81430332BF3D188F8016061E76DE012
:1042200076E07CE0B8F81430372BE9D188F8094003
:1042300057E7D8F860301880B8F81630312B7FF483
:104240005DAF88F8021059E773E07BE081E08AE017
:1042500092E0D8F860301D80B8F81630332BF2D1D8
:1042600088F802604AE78EE0B8F81630372BEAD1BA
:1042700088F80A4042E7D8F868301880B8F8183053
:10428000312B7FF448AF88F8031044E7D8F8683042
:104290001D80B8F81830332BF7D188F803603AE75F
:1042A000B8F81830372BF0D188F80B4033E7D8F83E
:1042B00070301880B8F81A30312B7FF439AF88F895
:1042C000041035E7D8F870301D80B8F81A30332B59
:1042D000F7D188F804602BE7B8F81A30372BF0D103
:1042E00088F80C4024E7D8F878301880B8F81C30EB
:1042F000312B7FF42AAF88F8051026E7D8F87830FC
:104300001D80B8F81C30332BF7D188F805601CE706
:10431000B8F81C30372BF0D188F80D4015E73B6812
:104320001880B8F81E30312B7FF41BAF88F80610C8
:1043300017E73B681D80B8F81E30332BF8D188F89A
:1043400006600EE7B8F81E30372BF1D188F80E4022
:1043500007E7BA681080B8F8200031287FF40DAF65
:1043600088F8071009E7B8680580B8F820003328F6
:10437000F8D188F8076000E7B8F820003728F1D1B5
:1043800088F80F40F9E698F80920012A7DD198F8BD
:104390000A20012AFAD198F80B20012AF6D198F8C0
:1043A0000C20012AF2D198F80D20012AEED198F8BC
:1043B0000F20012AEAD11103FD48FDF755F8FD4908
:1043C000B1460E80D8F8506086F8069035809FED93
:1043D000FA8B51EC1A0B53EC182BFBF7F6FFFCF79A
:1043E000E6F8C6F80700DFF8D8B3C6F80BB0D8F87F
:1043F000580041F23F01DFF8D0A384710180F149F8
:10440000C0F80710C0F80BA0D8F8606053EC182B68
:1044100051EC190B86F806903580FBF7D6FFFCF7B8
:10442000C6F8C6F80700C6F80BB0D8F8680041F225
:104430003F0153EC182B84710180E249C0F807104A
:10444000C0F80BA0D8F8706051EC1B0B86F80690F2
:104450003580FBF7BAFFFCF7AAF8C6F80700C6F8E4
:104460000BB0D8F8780041F23F0153EC182B84715F
:104470000180D449C0F80710C0F80BA03E6851EC89
:104480001C0B86F80690358000E085E1FBF79DFF68
:10449000FCF78DF8C6F80700C6F80BB0BD6841F20E
:1044A0003F00CA49AC712880C648C5F80700C5F866
:1044B0000BA04646D8F854400120884610E0012859
:1044C0000ED0022810D0032813D0042816D00528B7
:1044D00019D006281CD007281FD0082826D121E093
:1044E000D4F802204A6021E0F26DD2F802208A60FE
:1044F0001CE0726ED2F80220CA6017E0F26ED2F8A9
:1045000002200A6112E0726FD2F802204A610DE0C7
:10451000F26FD2F802208A6108E07A68D2F80220AD
:10452000CA6103E0FA68D2F802200A62401C082837
:10453000C5DD9FEDA7AB51EC1D0B53EC1A2BFBF720
:10454000B6FF8B464BEC100B82469FEDA39B51ECC4
:10455000100B53EC192BFBF738FF9FEDA18B53EC9D
:10456000182BFBF732FFFCF722F83064D8F808105C
:10457000081A00D5404249F64049484512DD4BEC47
:1045800010AB53EC192B51EC100BFBF71EFF53EC47
:10459000182BFBF71AFFFCF70AF8B16DC1F80200FF
:1045A000306303E0B16D306BC1F802009DED040B88
:1045B00053EC1A2B51EC100BFBF779FF8B464BECAD
:1045C000100B824653EC192B51EC100BFBF7FDFE40
:1045D00053EC182BFBF7F9FEFBF7E9FF7064D8F8F2
:1045E0001010081A00D54042484512DD4BEC10ABC4
:1045F00053EC192B51EC100BFBF7E7FE53EC182B87
:10460000FBF7E3FEFBF7D3FFB16EC1F80200706366
:1046100003E0B16E706BC1F8020053EC1A2B51EC41
:104620001E0BFBF744FF8B464BEC100B824653EC02
:10463000192B51EC100BFBF7C8FE53EC182BFBF7B2
:10464000C4FEFBF7B4FFB064D8F81810081A00D500
:104650004042484512DD4BEC10AB53EC192B51ECAA
:10466000100BFBF7B2FE53EC182BFBF7AEFEFBF77B
:104670009EFFB16FC1F80200B06303E0B16FB06B91
:10468000C1F8020053EC1A2B51EC1F0BFBF70FFF84
:104690008B464BEC100B824653EC192B51EC100B54
:1046A000FBF793FE53EC182BFBF78FFEFBF77FFF16
:1046B000F064D8F82010081A00D54042484511DDB2
:1046C0004BEC10AB53EC192B51EC100BFBF77DFEB0
:1046D00053EC182BFBF779FEFBF769FFC5F80200D6
:1046E000F06302E0F06BC5F8020020784FF086041A
:1046F000000706D5306D4FF4805104802C48FCF73C
:10470000B1FEF06D0078000706D5B06D4FF4805112
:1047100004802748FCF7A6FE706E0078000706D5D7
:10472000306E4FF4805104802148FCF79BFEF06E00
:104730000078000706D5B06E4FF4805104801C4805
:10474000FCF790FE706F0078000706D5306F4FF4CD
:10475000805104801648FCF785FEF06F0078000752
:1047600006D5B06F4FF4805104801148FCF77AFEF3
:1047700078680078000706D538684FF480510480C7
:104780000B48FCF76FFEF8680078000706D5B8689C
:104790004FF4805104800648FCF764FEFFF73EF8B2
:1047A0000BB0BDEC108BBDE8F04FFFF71FB8000059
:1047B00000100240A4010020000000E0612A6741CF
:1047C000CC2A04008007F000201364023802002085
:1047D000182D4454FB211940000000000000F04057
:1047E00000000000003071402DE9FF471E46DDE962
:1047F0000C8A14460F46814602F08BFDC5B240F28A
:10480000F72015FB00F101AA009782E8500109EB9F
:1048100041010C46484601F590512B46012203F018
:10482000DEFF52462946484604F075FB071E05DDAB
:1048300004F12C0132464046FBF7F3FC00222946E6
:10484000484603F0BAFF04B03846BDE8F0873EB5ED
:104850000024ADF8084002ACCDE900430223FFF785
:10486000C3FFBDF808003EBD2DE9FF479846DDE9CE
:104870000C9A17460E46054602F04BFDC4B240F2B4
:10488000F72014FB00F08DE8C00305EB4001234640
:104890000222284601F5905103F0A1FF524621461D
:1048A000284604F038FB064600222146284603F03D
:1048B00084FF04B03046BDE8F0871FB582B005AB79
:1048C000089CCDE900340223FFF7CEFF06B010BDEF
:1048D0002DE9FF471E46DDE90C8A14460F46814646
:1048E00002F017FDC5B240F2F72015FB00F101AA56
:1048F000009782E8500109EB41010C46484601F55A
:1049000090512B46072203F06AFF5246294648463B
:1049100004F001FB071E05DD04F12C013246404680
:10492000FBF77FFC00222946484603F046FF04B00F
:104930003846BDE8F0872DE9FF479846DDE90C9A37
:1049400017460E46054602F0E4FCC4B240F2F720DA
:1049500014FB00F08DE8C00305EB4001234608225C
:10496000284601F5905103F03AFF52462146284669
:1049700004F0D1FA064600222146284603F01DFF26
:1049800004B03046BDE8F0872DE9FF471E46DDE95B
:104990000C8A14460F46814602F0BBFCC5B240F2B9
:1049A000F72015FB00F101AA009782E8500109EBFE
:1049B00041010C46484601F590512B46042203F074
:1049C0000EFF52462946484604F0A5FA071E05DDAB
:1049D00004F12C0132464046FBF723FC0022294615
:1049E000484603F0EAFE04B03846BDE8F0873EB51D
:1049F0000024ADF8084002ACCDE900430223FFF7E4
:104A0000C3FFBDF808003EBD2DE9FF479846DDE92C
:104A10000C9A17460E46054602F07BFCC4B240F2E3
:104A2000F72014FB00F08DE8C00305EB400123469E
:104A30000522284601F5905103F0D1FE5246214649
:104A4000284604F068FA064600222146284603F06C
:104A5000B4FE04B03046BDE8F0871FB582B005ABA8
:104A6000089CCDE900340223FFF7CEFF06B010BD4D
:104A700010B586B0089CADF80C20ADF80A108DF882
:104A80000E30C26A0121117000218DF80F106946A5
:104A9000049402F079FF06B010BD2DE9FF4FADF28E
:104AA0000C4D824602A8DDF84894DDF84084DDF81C
:104AB0004464FEF747FE002302AA5046DDF81014B6
:104AC00002F00EFD82A8FEF73DFE0A200025ADF89B
:104AD0000802ADF80A52DDF8100453218DF80C528B
:104AE0004843DAF80420C82101EB800B02AC12F82D
:104AF0000B00FEF775FEDAF804200327B8F1000F6B
:104B000002F80B0007EB00108DF80D024FF4005077
:104B1000ADF80E0202D04FF0500001E04FF040001F
:104B20008DF81002DDF81404ADF8110206D0DDF89E
:104B30001804012802D90120CDF81804DDF8180462
:104B40008DF813020020859044F6206382AA504617
:104B5000DDF8101402F0C1FD051E37DD02A8FEF7D6
:104B6000F1FD02AA5046DDF84C34DDF8101402F0D5
:104B7000B7FC051EF1DD9DF80D0000F00F000328C5
:104B80007DD1BDF80E10B0EB113FF9D1BDF8110089
:104B9000BDF811128842F3D19DF81000810716D597
:104BA000C0F38100C0F104073068B84204DB3A4624
:104BB00004F10C014846B2E0032000900DF5826438
:104BC000002594E80E00504602F032FEB9E0059F41
:104BD0003068B842F0DBBDF8081048460A398AB29E
:104BE000904606A9BA427EDAFBF71BFB09EB0800E8
:104BF0000190C6F800804FF001094FF000080A202C
:104C00000025ADF80802ADF80A528DF80C52DAF81A
:104C1000041011F80B00FEF7E3FDDAF80420032777
:104C200044F6206302F80B0007EB00108DF80D022C
:104C30004FF40050ADF80E0208F160008DF810023C
:104C4000DDF81404ADF81102DDF818048DF8130234
:104C500082AA85955046DDF8101402F03EFD051E2F
:104C600029DD02A8FEF76EFD02AA5046DDF84C349D
:104C7000DDF8101402F034FC051E1CDD00E052E0EB
:104C8000607900F00F00032806D1E088B7EB103FF1
:104C900002D1207A410914D0207A4FF000098028EF
:104CA00032D0012000900DF58265504695E80E0047
:104CB00002F0BEFD002588F01008B9F1000F9ED16A
:104CC0003FE02188C91E8FB2C10710D04FF0000904
:104CD000072F03D1C0F34200C0F107073A4604F1A1
:104CE0000901019800E019E0FBF79BFA08E03A4659
:104CF00004F109010198FBF794FA019838440190F6
:104D0000306838443060D6E7E06800900DF5826581
:104D1000504695E80E00FFF7ABFECBE73A46FBF7AF
:104D200080FA37600DE09DF8100080280ED0012039
:104D300000900DF58264504694E80E0002F078FD74
:104D400000250DF21C4D2846BDE8F08F0598009017
:104D50000DF58264504694E80E00FFF789FEEFE7F8
:104D60002DE9FF4FADF20C4D074602A8DDF8449443
:104D7000FEF7E8FC002302AA3846DDF8101402F022
:104D8000AFFB82A8FEF7DEFCDDF810045322796841
:104D90005043BE2202EB8002895AC823A1F1100BB6
:104DA000002102AD0DF5027A03EB8008B9F1040F82
:104DB00002DCDDF8400440B31FFA89F400265C45AC
:104DC00002DD1FFA8BF4012604F10A00ADF8080297
:104DD0000020ADF80A028DF80C02796811F808007D
:104DE000FEF7FEFC7A68032102F8080001EB0010D0
:104DF0008DF80D024FF40050ADF80E02DDF84004BE
:104E000000287BD04FF031007AE04FF00A00ADF877
:104E10000802ADF80A128DF80C12796811F8080032
:104E2000FEF7DEFC7A68032102F8080001EB0010AF
:104E30008DF80D024FF40050ADF80E02C9F10400D8
:104E40000C2101EA800040F023008DF81002DDF80B
:104E50001404ADF81102DDF818048DF813024A4667
:104E60000AF10C00DDF84814FBF7DBF944F6206387
:104E700082AA3846DDF8101402F02FFC002838DD35
:104E800002A8FEF75FFC02AA3846DDF84C34DDF8D4
:104E9000101402F025FB00282BDD9DF80D1001F009
:104EA0000F02BDF80E10090B032A0DD10329FCD106
:104EB000BDF81110BDF811229142F6D19DF81310E2
:104EC0009DF81322914214D0FEE0059800900DF554
:104ED0008264384694E80E00FFF7CAFD08E001201E
:104EE00000900DF58264384694E80E0002F0A0FCB4
:104EF00000200DF21C4DBDE8F08FFFE74FF02100C0
:104F00008DF81002DDF81404ADF81102DDF8180474
:104F10008DF8130206D0DDF81804012802D901200B
:104F20008DF81302DDF8480401900146CDF8149283
:104F300022460AF11000FBF774F90198A9EB040A64
:104F40002044019044F6206382AA3846DDF810140C
:104F500002F0C3FB0028CCDD02A8FEF7F3FB02AA97
:104F60003846DDF84C34DDF8101402F0B9FA0028A8
:104F7000BFDD9DF80D1001F00F0103297DD1BDF8B3
:104F80000E20B1EB123F78D1BDF81110BDF81122FF
:104F9000914272D19DF813109DF8132291426CD169
:104FA0000BF10701CDF8081400217EE082A80090E3
:104FB000DDF808041FFA8AF400264FF0010B8DF883
:104FC00010B2844205DD84B2012600208DF8100263
:104FD0000BE0072C09D20A20ADF80802C4F1070142
:104FE0000BEB41008DF8100202E0E01CADF8080266
:104FF0000020ADF80A028DF80C02796811F808005B
:10500000FEF7EEFB7A68032102F8080001EB0010BE
:105010008DF80D024FF400509DF81012ADF80E02FD
:1050200001EB09008DF81002DDE90001224609308C
:10503000FBF7F7F80198AAEB040A2044019044F624
:10504000206382AA3846DDF8101402F046FB0028DF
:1050500029DD02A8FEF776FB02AA3846DDF84C34BB
:10506000DDF8101402F03CFA00281CDD697901F02B
:105070000F01032909D1EA8800E025E0B1EB123FD6
:1050800003D12A7ABBEB521F0DD0287A802811D089
:105090000DF58264CDF800B094E80E00384602F0B9
:1050A000C7FB0020064689F010018946002E7FF4D8
:1050B0007DAF1EE7E86800900DF58264384694E8FD
:1050C0000E00FFF7D5FCECE79DF8100080287FF478
:1050D00006AFFAE600B587B0ADF80A10ADF80C20BF
:1050E00000218DF80E10C26A0121117008218DF87F
:1050F0000F10ADF81030694602F046FC07B000BD55
:105100002DE9FF4FADF2044D9946924601A8DDF816
:105110004064FEF717FB0DF20440002303C801AA08
:1051200002F0DEF981A8FEF70DFB0420ADF80402C1
:105130000020ADF806028DF80802DDF804045321C2
:1051400001AC4268DDF808044843C82101EB800542
:10515000505DFEF745FBDDF80414B0464FF0010B3F
:10516000496844F6206381AA4855052101EB0010E7
:105170008DF809029DF80A02002520F00700401C66
:1051800020F018006AF347108DF80A028DF80B9290
:10519000DDF83804ADF80C020DF10E0000900DF2B0
:1051A000044003C802F099FA061E71DD01A8FEF75B
:1051B000C9FA0DF2044001AA03C8DDF8443402F034
:1051C0008FF9061E56DD607900F00F0005282ED1FC
:1051D000A07900F00701022929D1C10627D4BAEB32
:1051E000501F24D1E179494521D12088001F87B281
:1051F000E81985B2DDF83C040068A84206DB3A46AF
:1052000040460099FBF70DF8B84409E0291A791ACD
:105210000A04120C85B203D040460099FBF701F84E
:10522000A079000731D4DDF83C04056030E06079F6
:1052300000F00F00052811D1A07900F00701022924
:105240000CD1C0060AD5218802A8DDF838240B5AF3
:105250000DF2044003C8FFF73DFF09E00120009074
:105260000DF20440002303C8DDF8382402F0E0FA10
:1052700000260DE0042000900DF20440002303C836
:10528000DDF8382402F0D4FA02E0BBF1000F8DD132
:105290000DF2144D3046BDE8F08F2DE9F05F0D465C
:1052A000DDE90C9400EB8307DDE90ABA07F58057C6
:1052B00031F80E8F04F10C0CDDF838E0D7F8DC0D76
:1052C000C444A1F800C0B1F808C086B24CF4004C48
:1052D000A1F808C015FA80F000F80229BBF1000F10
:1052E000C370A0F804A0A0F8069003D044F40041D5
:1052F000018100E004812CB1A819224671460A30D0
:10530000FAF78FFF3019411900228A72CA720C30E5
:10531000C7F8DC0D301FBDE8F09F0020704700008B
:105320002DE9F34F99B00446FEA01A99FDF788FACB
:10533000A06800270760E1684FF4A67041436068E9
:10534000FAF788FF402103A8FAF784FF61694FF458
:10535000947041432069FAF77DFF4FF48052002199
:10536000204603F01BFD002008E000EB80032269CB
:10537000010403EB4013401C42F833106169814281
:10538000F3DC41F2707502AECDE900658DF808706E
:10539000012340F2031200212068FFF7CCFACDE987
:1053A00000654FF0110A8DF808A04FF4907B01239F
:1053B0005A4600212068FFF7BEFACDE900650123B7
:1053C0005A4600212068FFF7B6FA0146DBA0FDF738
:1053D00037FA44F620610DF14C08CDE90081ADF8B3
:1053E0004C700022022311462068FFF771FA1590D5
:1053F00000287CDDA1684FF0000901230860CDE999
:1054000000658DF8089040F2011249462068FFF7C8
:1054100092FACDE900850420ADF84C0002231A026F
:1054200000212068FFF787FA03AFCDE90075082354
:105430004FF4407200212068FFF77DFACDE9007536
:1054400030235A0100212068FFF775FACDE9007575
:1054500020239A0100212068FFF76DFACDE900753D
:1054600004234FF4116200212068FFF764FACDE9AC
:1054700000854FF48050ADF84C0002234FF41362C6
:1054800000212068FFF757FACDE900854FF440600E
:10549000ADF84C00022340F6341200212068FFF7DB
:1054A0004AFACDE900658DF80890012340F2031215
:1054B00000212068FFF73FFACDE900658DF808A0CC
:1054C00001235A4600212068FFF735FACDE900652F
:1054D0004FF0020B8DF808B04FF4A06701233A4655
:1054E00000212068FFF727FA8DF8089000E0FCE320
:1054F000CDE9006501233A4600212068FFF71BFA39
:105500000125AA4664E0C5F101001FFA80F841F2C6
:1055100070773B464FF4A07241462068FFF797F939
:10552000532205FB02F66168142202EB86028852C0
:1055300005F5805083B20097102241462068FFF79E
:10554000BCF9012D4CD000208DF8080000979DF883
:1055500008304FF4807241462068FFF7AEF93B46B1
:10556000102241462068FFF772F96268042101EBBE
:1055700086015052804617A8CDE900070223122267
:1055800041462068FFF700FA61680622BDF85C001A
:1055900002EB8602885216A8CDE90007022340F2EA
:1055A000025241462068FFF7EFF9BDF85800ADF808
:1055B0005800400605D5FA22616802EB860201F820
:1055C00002A008222946204602F004FD6D1CADB25F
:1055D000A0680068A84296DA012544F6206615E026
:1055E0008DF808A0B2E732462946204602F03EFD7B
:1055F000532169430822636802EB81010A22585053
:105600002946204602F0E6FC6D1CADB2A068006899
:10561000A842E8DA012511E032462946204602F088
:1056200025FD532169430C22636802EB8101585028
:105630002946204602F0CEFC6D1CADB2A068006881
:10564000A842E9DA0125102711E032462946204612
:1056500002F00CFD53216943626807EB8101505051
:1056600018222946204602F0B5FC6D1CADB2A06898
:105670000068A842E9DA01251CE044F620622946C8
:10568000204602F0F3FC532205FB02F16368C022BE
:1056900002EB8102985263684FF0BE02000C02EBED
:1056A0008101585204D01A222946204602F092FC69
:1056B0006D1CADB2A0680068A842DEDA0127B8E32D
:1056C000532007FB00F56168BE2000EB850931F827
:1056D0000900B0B144F620623946204602F0C6FC0B
:1056E0006268C42101EB85015052010C63684FF0E0
:1056F000C20000EB85029952606802D130F80910AF
:1057000081526168042000EB8500085A149041F230
:105710007073082220681499FFF769F9400719D5BA
:10572000C92111E065635F636F6E6669675F696ECB
:1057300069742025640A200D00000000776B632047
:105740003D2025640A200D00626801EB850102F806
:1057500001A005E00020C921626801EB85015054D9
:1057600041F270734FF4887220681499FFF73FF983
:105770000026C0F301218DF80860022902D101261C
:105780008DF808A0C0F38121022906D19DF80810E8
:10579000761C41F002018DF80810C0F30131022996
:1057A00006D19DF80810761C41F004018DF8081010
:1057B000BBEB903F06D19DF80800761C40F0080036
:1057C0008DF8080041F27073072220681499FFF7E2
:1057D0000EF9CA22616802EB85024FF0CB0C8854A7
:1057E00060680CEB8501CC224654616802EB8502AF
:1057F0009DF808008854CE216268002001EB8506E0
:105800009053012F22D9791E09B2532211FB02F2C3
:1058100063680CEB82029A5C012A04D0032A04D04C
:10582000042A0BD003E0401E00E0401C00B2002818
:1058300001DB012A04D8012902D003E0801CF5E72E
:1058400099530121491E09B20029DEDCFB4B0122DC
:105850003946204603F08AFBADF84C00606830F80A
:105860000910E9B3712202EB8502722100F802A04F
:10587000626801EB8501732002F801B0626800EBF9
:105880008500032111547421626801EB8501042015
:1058900050546068C02101EB8501425A312101EB6F
:1058A0008501084433210280606801EB850130F8EE
:1058B0000920084435210280626801EB850111440A
:1058C000DF4808606068C42101EB8501425A392134
:1058D00001EB85010844C221028001EB850100E053
:1058E0001AE0606844F62063425A3B2101EB8501CF
:1058F00008443D2102806268D14801EB85011144D2
:10590000001F08601C223946204602F04DFB6168EA
:10591000C62202EB850288521A9800287ED00C21FC
:10592000606801EB8501082202EB8502415880582E
:10593000FDF73AFFF622616802EB850200288852E3
:10594000ECD000EB8001BF484FF48A7200EB0116E7
:10595000616802EB8502F06C88504FF486726068D3
:1059600002EB8502B16C81506068162296F8311006
:1059700002EB850281524FF49070616800EB850064
:10598000084406F10801FAF770FC62682620718E5F
:1059900000EB8500115263681822B18E02EB850E70
:1059A00023F80E10626821B1B92303EB850302F8D6
:1059B00003A061680A5A22B1BA2303EB850301F8F8
:1059C00003B08521636896F8442001EB85010091BE
:1059D0005A549521D4F804C001EB850396F845206C
:1059E0000CF803204FF0410C62680CEB850C62440C
:1059F000F18E11804FF04508626808EB850842443B
:105A0000B16B1160616831F80E202AB18C44BCF88A
:105A100000C0BCF1000F35D0D21D00E08AE04FF08D
:105A2000430C0CEB850C6144D2080A8003227321DD
:105A3000D4F804C001EB85010CF801204FF0490CAB
:105A400062680CEB850C6244B18F1180316C4D267D
:105A5000626806EB85063244116061680A5A1AB121
:105A600001EB0C063688EEB3D21DD0084B2202EBB8
:105A700085021144088004206268742101EB8501CD
:105A800050546FE1312202EB850211444FF4706CE7
:105A9000A1F800C0616831F80E20D21D4FEAD20C87
:105AA000332202EB85021144654AA1F800C035217A
:105AB000D4F804C001EB850161441E320A60D4F8B9
:105AC00004C0009A03210CF802A04FF0840C626815
:105AD0000CEB850C02F80CB04FF0710C0CEB850C44
